{
  "_format": "hh-sol-artifact-1",
  "contractName": "EffectsAllowList",
  "sourceName": "contracts/EffectsAllowList.sol",
  "abi": [
    {
      "inputs": [],
      "stateMutability": "nonpayable",
      "type": "constructor"
    },
    {
      "anonymous": false,
      "inputs": [
        {
          "indexed": true,
          "internalType": "bytes32",
          "name": "role",
          "type": "bytes32"
        },
        {
          "indexed": true,
          "internalType": "bytes32",
          "name": "previousAdminRole",
          "type": "bytes32"
        },
        {
          "indexed": true,
          "internalType": "bytes32",
          "name": "newAdminRole",
          "type": "bytes32"
        }
      ],
      "name": "RoleAdminChanged",
      "type": "event"
    },
    {
      "anonymous": false,
      "inputs": [
        {
          "indexed": true,
          "internalType": "bytes32",
          "name": "role",
          "type": "bytes32"
        },
        {
          "indexed": true,
          "internalType": "address",
          "name": "account",
          "type": "address"
        },
        {
          "indexed": true,
          "internalType": "address",
          "name": "sender",
          "type": "address"
        }
      ],
      "name": "RoleGranted",
      "type": "event"
    },
    {
      "anonymous": false,
      "inputs": [
        {
          "indexed": true,
          "internalType": "bytes32",
          "name": "role",
          "type": "bytes32"
        },
        {
          "indexed": true,
          "internalType": "address",
          "name": "account",
          "type": "address"
        },
        {
          "indexed": true,
          "internalType": "address",
          "name": "sender",
          "type": "address"
        }
      ],
      "name": "RoleRevoked",
      "type": "event"
    },
    {
      "inputs": [],
      "name": "DEFAULT_ADMIN_ROLE",
      "outputs": [
        {
          "internalType": "bytes32",
          "name": "",
          "type": "bytes32"
        }
      ],
      "stateMutability": "view",
      "type": "function"
    },
    {
      "inputs": [],
      "name": "LIST_MANAGER_ROLE",
      "outputs": [
        {
          "internalType": "bytes32",
          "name": "",
          "type": "bytes32"
        }
      ],
      "stateMutability": "view",
      "type": "function"
    },
    {
      "inputs": [
        {
          "components": [
            {
              "internalType": "address",
              "name": "modificatorsContract",
              "type": "address"
            },
            {
              "internalType": "string",
              "name": "serverUrl",
              "type": "string"
            },
            {
              "internalType": "address",
              "name": "owner",
              "type": "address"
            },
            {
              "internalType": "address",
              "name": "originalContract",
              "type": "address"
            },
            {
              "internalType": "enum EffectsAllowList.CollectionType",
              "name": "collectionType",
              "type": "uint8"
            }
          ],
          "internalType": "struct EffectsAllowList.EffectInfo",
          "name": "effectInfo",
          "type": "tuple"
        }
      ],
      "name": "addToList",
      "outputs": [],
      "stateMutability": "nonpayable",
      "type": "function"
    },
    {
      "inputs": [
        {
          "internalType": "address",
          "name": "originalContract",
          "type": "address"
        },
        {
          "internalType": "address",
          "name": "modificatorsContract",
          "type": "address"
        }
      ],
      "name": "checkPermission",
      "outputs": [
        {
          "internalType": "bool",
          "name": "",
          "type": "bool"
        }
      ],
      "stateMutability": "view",
      "type": "function"
    },
    {
      "inputs": [
        {
          "internalType": "uint256",
          "name": "",
          "type": "uint256"
        }
      ],
      "name": "effectsInfos",
      "outputs": [
        {
          "internalType": "address",
          "name": "modificatorsContract",
          "type": "address"
        },
        {
          "internalType": "string",
          "name": "serverUrl",
          "type": "string"
        },
        {
          "internalType": "address",
          "name": "owner",
          "type": "address"
        },
        {
          "internalType": "address",
          "name": "originalContract",
          "type": "address"
        },
        {
          "internalType": "enum EffectsAllowList.CollectionType",
          "name": "collectionType",
          "type": "uint8"
        }
      ],
      "stateMutability": "view",
      "type": "function"
    },
    {
      "inputs": [
        {
          "internalType": "address",
          "name": "modificatorsContract",
          "type": "address"
        }
      ],
      "name": "getByEffect",
      "outputs": [
        {
          "components": [
            {
              "internalType": "address",
              "name": "modificatorsContract",
              "type": "address"
            },
            {
              "internalType": "string",
              "name": "serverUrl",
              "type": "string"
            },
            {
              "internalType": "address",
              "name": "owner",
              "type": "address"
            },
            {
              "internalType": "address",
              "name": "originalContract",
              "type": "address"
            },
            {
              "internalType": "enum EffectsAllowList.CollectionType",
              "name": "collectionType",
              "type": "uint8"
            }
          ],
          "internalType": "struct EffectsAllowList.EffectInfo",
          "name": "",
          "type": "tuple"
        }
      ],
      "stateMutability": "view",
      "type": "function"
    },
    {
      "inputs": [],
      "name": "getEffectInfos",
      "outputs": [
        {
          "components": [
            {
              "internalType": "address",
              "name": "modificatorsContract",
              "type": "address"
            },
            {
              "internalType": "string",
              "name": "serverUrl",
              "type": "string"
            },
            {
              "internalType": "address",
              "name": "owner",
              "type": "address"
            },
            {
              "internalType": "address",
              "name": "originalContract",
              "type": "address"
            },
            {
              "internalType": "enum EffectsAllowList.CollectionType",
              "name": "collectionType",
              "type": "uint8"
            }
          ],
          "internalType": "struct EffectsAllowList.EffectInfo[]",
          "name": "",
          "type": "tuple[]"
        }
      ],
      "stateMutability": "view",
      "type": "function"
    },
    {
      "inputs": [
        {
          "internalType": "bytes32",
          "name": "role",
          "type": "bytes32"
        }
      ],
      "name": "getRoleAdmin",
      "outputs": [
        {
          "internalType": "bytes32",
          "name": "",
          "type": "bytes32"
        }
      ],
      "stateMutability": "view",
      "type": "function"
    },
    {
      "inputs": [
        {
          "internalType": "bytes32",
          "name": "role",
          "type": "bytes32"
        },
        {
          "internalType": "address",
          "name": "account",
          "type": "address"
        }
      ],
      "name": "grantRole",
      "outputs": [],
      "stateMutability": "nonpayable",
      "type": "function"
    },
    {
      "inputs": [
        {
          "internalType": "bytes32",
          "name": "role",
          "type": "bytes32"
        },
        {
          "internalType": "address",
          "name": "account",
          "type": "address"
        }
      ],
      "name": "hasRole",
      "outputs": [
        {
          "internalType": "bool",
          "name": "",
          "type": "bool"
        }
      ],
      "stateMutability": "view",
      "type": "function"
    },
    {
      "inputs": [
        {
          "internalType": "address",
          "name": "modificatorsContract",
          "type": "address"
        }
      ],
      "name": "removeFromList",
      "outputs": [],
      "stateMutability": "nonpayable",
      "type": "function"
    },
    {
      "inputs": [
        {
          "internalType": "bytes32",
          "name": "role",
          "type": "bytes32"
        },
        {
          "internalType": "address",
          "name": "account",
          "type": "address"
        }
      ],
      "name": "renounceRole",
      "outputs": [],
      "stateMutability": "nonpayable",
      "type": "function"
    },
    {
      "inputs": [
        {
          "internalType": "bytes32",
          "name": "role",
          "type": "bytes32"
        },
        {
          "internalType": "address",
          "name": "account",
          "type": "address"
        }
      ],
      "name": "revokeRole",
      "outputs": [],
      "stateMutability": "nonpayable",
      "type": "function"
    },
    {
      "inputs": [
        {
          "internalType": "bytes4",
          "name": "interfaceId",
          "type": "bytes4"
        }
      ],
      "name": "supportsInterface",
      "outputs": [
        {
          "internalType": "bool",
          "name": "",
          "type": "bool"
        }
      ],
      "stateMutability": "view",
      "type": "function"
    }
  ],
  "bytecode": "0x604060808152346100fc57600080805260208181528282203383529052604081205460ff16156100be575b7f4b27f99299568aa81ae1ba4670c220b444a578da13025fe3140d49e432d2bcf480825260208281528383203360009081529152604090205490919060ff161561007e575b8251611cc79081620001028239f35b8181526020818152838220336000908152915260409020600160ff19825416179055339160008051602062001dc983398151915233928551a4388061006f565b8080526020818152828220336000908152915260409020600160ff1982541617905533338260008051602062001dc9833981519152818651a461002a565b600080fdfe60806040526004361015610013575b600080fd5b60003560e01c806301ffc9a71461012b57806304cd22a0146101225780631a160fe914610119578063248a9ca314610110578063257f9abf146101075780632f2ff15d146100fe57806336568abe146100f557806371028ccb146100ec57806391d14854146100e357806398332bbc146100da578063a217fddf146100d1578063c9b79814146100c8578063d547741f146100bf5763ebad7ed3146100b757600080fd5b61000e610eab565b5061000e610e48565b5061000e610d37565b5061000e610a85565b5061000e610a2b565b5061000e6109a8565b5061000e6108c2565b5061000e6107d7565b5061000e61069d565b5061000e610513565b5061000e6104c5565b5061000e610468565b5061000e610381565b503461000e5760207ffffffffffffffffffffffffffffffffffffffffffffffffffffffffffffffffc36011261000e576004357fffffffff00000000000000000000000000000000000000000000000000000000811680910361000e57807f7965db0b00000000000000000000000000000000000000000000000000000000602092149081156101c1575b506040519015158152f35b7f01ffc9a700000000000000000000000000000000000000000000000000000000915014386101b6565b918091926000905b82821061020b575011610204575050565b6000910152565b915080602091830151818601520182916101f3565b907fffffffffffffffffffffffffffffffffffffffffffffffffffffffffffffffe0601f60209361025c815180928187528780880191016101eb565b0116010190565b9060058210156102705752565b7f4e487b7100000000000000000000000000000000000000000000000000000000600052602160045260246000fd5b906102fe9060808073ffffffffffffffffffffffffffffffffffffffff948581511684526102dc602082015160a0602087015260a0860190610220565b9580604083015116604086015260608201511660608501520151910190610263565b90565b602080820190808352835180925260408301928160408460051b8301019501936000915b8483106103355750505050505090565b9091929394958480610371837fffffffffffffffffffffffffffffffffffffffffffffffffffffffffffffffc086600196030187528a5161029f565b9801930193019194939290610325565b503461000e5760007ffffffffffffffffffffffffffffffffffffffffffffffffffffffffffffffffc36011261000e576001805467ffffffffffffffff811161043d575b6040519060206103da818360051b0184610be4565b8183526000848152907fb10e2d527612073b26eecdfd717e6a320cf44b4afac2b0732d9fcbe2b7fa0cf68185015b848410610421576040518061041d8882610301565b0390f35b600483889261042f85611bcb565b815201920193019290610408565b610445610b8b565b6103c5565b73ffffffffffffffffffffffffffffffffffffffff81160361000e57565b503461000e5760407ffffffffffffffffffffffffffffffffffffffffffffffffffffffffffffffffc36011261000e5760206104bb6004356104a98161044a565b602435906104b68261044a565b611b5e565b6040519015158152f35b503461000e5760207ffffffffffffffffffffffffffffffffffffffffffffffffffffffffffffffffc36011261000e5760043560005260006020526020600160406000200154604051908152f35b503461000e5760207ffffffffffffffffffffffffffffffffffffffffffffffffffffffffffffffffc36011261000e5760043561054f8161044a565b3360009081527f2301908ace398ce9172268b7766ea240386c24e4845616ede2fc2cb7ebc30b4560205260408120549091829160ff161561069a57806105d76105b761059d61064694611c35565b5173ffffffffffffffffffffffffffffffffffffffff1690565b73ffffffffffffffffffffffffffffffffffffffff8084169116146113db565b6105e26001546117b4565b61060c8273ffffffffffffffffffffffffffffffffffffffff166000526002602052604060002090565b549080820361064c575b5050610620611a6a565b73ffffffffffffffffffffffffffffffffffffffff166000526002602052604060002090565b55604051f35b6106206106778261067261066261069295610af0565b5061066c87610af0565b90611930565b610af0565b505473ffffffffffffffffffffffffffffffffffffffff1690565b553880610616565b50fd5b503461000e576040807ffffffffffffffffffffffffffffffffffffffffffffffffffffffffffffffffc36011261000e57600435906024356106de8161044a565b600092808452836020526106f9600184862001543390610f2e565b8084528360205260ff61072e838587209073ffffffffffffffffffffffffffffffffffffffff16600052602052604060002090565b54161561073a57505051f35b8084528360205261076d828486209073ffffffffffffffffffffffffffffffffffffffff16600052602052604060002090565b60017fffffffffffffffffffffffffffffffffffffffffffffffffffffffffffffff0082541617905573ffffffffffffffffffffffffffffffffffffffff339216907f2f8788117e7eff1d82e926ec794901d17c78024a50270940304540a733656f0d858551a451f35b503461000e5760407ffffffffffffffffffffffffffffffffffffffffffffffffffffffffffffffffc36011261000e576024356108138161044a565b3373ffffffffffffffffffffffffffffffffffffffff82160361083e5761083c906004356110fb565b005b60846040517f08c379a000000000000000000000000000000000000000000000000000000000815260206004820152602f60248201527f416363657373436f6e74726f6c3a2063616e206f6e6c792072656e6f756e636560448201527f20726f6c657320666f722073656c6600000000000000000000000000000000006064820152fd5b503461000e577ffffffffffffffffffffffffffffffffffffffffffffffffffffffffffffffffc60208136011261000e576004359067ffffffffffffffff821161000e5760a09082600401923603011261000e573360009081527f2301908ace398ce9172268b7766ea240386c24e4845616ede2fc2cb7ebc30b45602052604081205490919060ff16156109a45780359061095c8261044a565b73ffffffffffffffffffffffffffffffffffffffff82169182156109a05761099b9261098a6001549261044a565b845260026020526040842055611603565b604051f35b8380fd5b5080fd5b503461000e5760407ffffffffffffffffffffffffffffffffffffffffffffffffffffffffffffffffc36011261000e57602060ff610a1f6024356109eb8161044a565b6004356000526000845260406000209073ffffffffffffffffffffffffffffffffffffffff16600052602052604060002090565b54166040519015158152f35b503461000e5760007ffffffffffffffffffffffffffffffffffffffffffffffffffffffffffffffffc36011261000e5760206040517f4b27f99299568aa81ae1ba4670c220b444a578da13025fe3140d49e432d2bcf48152f35b503461000e5760007ffffffffffffffffffffffffffffffffffffffffffffffffffffffffffffffffc36011261000e57602060405160008152f35b507f4e487b7100000000000000000000000000000000000000000000000000000000600052603260045260246000fd5b600154811015610b2b575b600160005260021b7fb10e2d527612073b26eecdfd717e6a320cf44b4afac2b0732d9fcbe2b7fa0cf60190600090565b610b33610ac0565b610afb565b90600182811c92168015610b81575b6020831014610b5257565b7f4e487b7100000000000000000000000000000000000000000000000000000000600052602260045260246000fd5b91607f1691610b47565b507f4e487b7100000000000000000000000000000000000000000000000000000000600052604160045260246000fd5b60a0810190811067ffffffffffffffff821117610bd757604052565b610bdf610b8b565b604052565b90601f7fffffffffffffffffffffffffffffffffffffffffffffffffffffffffffffffe0910116810190811067ffffffffffffffff821117610bd757604052565b9060405191826000825492610c3984610b38565b908184526001948581169081600014610ca85750600114610c65575b5050610c6392500383610be4565b565b9093915060005260209081600020936000915b818310610c90575050610c6393508201013880610c55565b85548884018501529485019487945091830191610c78565b9450505050507fffffffffffffffffffffffffffffffffffffffffffffffffffffffffffffff009150166020830152610c6382604081013880610c55565b9091610c639460809397969497610d2373ffffffffffffffffffffffffffffffffffffffff9384809316865260a0602087015260a0860190610220565b981660408401521660608201520190610263565b503461000e5760207ffffffffffffffffffffffffffffffffffffffffffffffffffffffffffffffffc36011261000e5760043560015481101561000e57600160005260021b73ffffffffffffffffffffffffffffffffffffffff61041d81837fb10e2d527612073b26eecdfd717e6a320cf44b4afac2b0732d9fcbe2b7fa0cf601541692610de67fb10e2d527612073b26eecdfd717e6a320cf44b4afac2b0732d9fcbe2b7fa0cf78201610c25565b937fb10e2d527612073b26eecdfd717e6a320cf44b4afac2b0732d9fcbe2b7fa0cf9847fb10e2d527612073b26eecdfd717e6a320cf44b4afac2b0732d9fcbe2b7fa0cf8840154169201549160405195869560ff8560a01c1694169286610ce6565b503461000e5760407ffffffffffffffffffffffffffffffffffffffffffffffffffffffffffffffffc36011261000e5761083c602435600435610e8a8261044a565b806000526000602052610ea66001604060002001543390610f2e565b6110fb565b503461000e5760207ffffffffffffffffffffffffffffffffffffffffffffffffffffffffffffffffc36011261000e5761041d610ef2600435610eed8161044a565b611c35565b60405191829160208352602083019061029f565b90610f19602092828151948592016101eb565b0190565b9060206102fe928181520190610220565b9081600052600060205260ff610f688260406000209073ffffffffffffffffffffffffffffffffffffffff16600052602052604060002090565b541615610f73575050565b73ffffffffffffffffffffffffffffffffffffffff1690610f92611209565b916030610f9e84611244565b536078610faa8461125a565b5360295b600181116110a05761109c61100f61106a8661103e610fd688610fd189156112be565b611323565b6110386040519586947f416363657373436f6e74726f6c3a206163636f756e742000000000000000000060208701526037860190610f06565b7f206973206d697373696e6720726f6c6520000000000000000000000000000000815260110190565b90610f06565b037fffffffffffffffffffffffffffffffffffffffffffffffffffffffffffffffe08101835282610be4565b6040519182917f08c379a000000000000000000000000000000000000000000000000000000000835260048301610f1d565b0390fd5b90807f3031323334353637383961626364656600000000000000000000000000000000600f6110e9931660108110156110ee575b1a6110df848761126b565b5360041c9161128a565b610fae565b6110f6610ac0565b6110d4565b6000908082528160205260ff61113484604085209073ffffffffffffffffffffffffffffffffffffffff16600052602052604060002090565b541661113f57505050565b8082528160205261117383604084209073ffffffffffffffffffffffffffffffffffffffff16600052602052604060002090565b7fffffffffffffffffffffffffffffffffffffffffffffffffffffffffffffff0081541690557ff6391f5c32d9c69d2a47ea670b442974b53935d1edc7fd64eb21e047a839171b73ffffffffffffffffffffffffffffffffffffffff33941692604051a4565b507f4e487b7100000000000000000000000000000000000000000000000000000000600052601160045260246000fd5b604051906060820182811067ffffffffffffffff821117611237575b604052602a8252604082602036910137565b61123f610b8b565b611225565b602090805115611252570190565b610f19610ac0565b602190805160011015611252570190565b90602091805182101561127d57010190565b611285610ac0565b010190565b7fffffffffffffffffffffffffffffffffffffffffffffffffffffffffffffffff9080156112b6570190565b610f196111d9565b156112c557565b60646040517f08c379a000000000000000000000000000000000000000000000000000000000815260206004820152602060248201527f537472696e67733a20686578206c656e67746820696e73756666696369656e746044820152fd5b604051906080820182811067ffffffffffffffff8211176113ce575b604052604282526060366020840137603061135983611244565b5360786113658361125a565b536041905b6001821161137d576102fe9150156112be565b807f3031323334353637383961626364656600000000000000000000000000000000600f6113bb931660108110156113c1575b1a6110df848661126b565b9061136a565b6113c9610ac0565b6113b0565b6113d6610b8b565b61133f565b1561000e57565b356102fe8161044a565b507f4e487b7100000000000000000000000000000000000000000000000000000000600052600060045260246000fd5b818110611427575050565b6000815560010161141c565b9190601f811161144257505050565b610c63926000526020600020906020601f840160051c8301931061146e575b601f0160051c019061141c565b9091508190611461565b90929167ffffffffffffffff811161159a575b61149f816114998454610b38565b84611433565b6000601f82116001146114f657819293946000926114eb575b50507fffffffffffffffffffffffffffffffffffffffffffffffffffffffffffffffff8260011b9260031b1c1916179055565b0135905038806114b8565b7fffffffffffffffffffffffffffffffffffffffffffffffffffffffffffffffe082169461152984600052602060002090565b91805b87811061158257508360019596971061154a575b505050811b019055565b7fffffffffffffffffffffffffffffffffffffffffffffffffffffffffffffffff60f88560031b161c19910135169055388080611540565b9092602060018192868601358155019401910161152c565b6115a2610b8b565b61148b565b35600581101561000e5790565b906005811015610270577fffffffffffffffffffffff00ffffffffffffffffffffffffffffffffffffffff74ff000000000000000000000000000000000000000083549260a01b169116179055565b611627600154680100000000000000008110156117a7575b60018101600155610af0565b91909161179a575b61167e813561163d8161044a565b839073ffffffffffffffffffffffffffffffffffffffff167fffffffffffffffffffffffff0000000000000000000000000000000000000000825416179055565b60208101357fffffffffffffffffffffffffffffffffffffffffffffffffffffffffffffffe18236030181121561000e5781019182359267ffffffffffffffff841161000e57602001833603811361000e576003826116e9610c639660809460016117949701611478565b61173c6116f8604087016113e2565b600283019073ffffffffffffffffffffffffffffffffffffffff167fffffffffffffffffffffffff0000000000000000000000000000000000000000825416179055565b019261178e61174d606083016113e2565b859073ffffffffffffffffffffffffffffffffffffffff167fffffffffffffffffffffffff0000000000000000000000000000000000000000825416179055565b016115a7565b906115b4565b6117a26113ec565b61162f565b6117af610b8b565b61161b565b7fffffffffffffffffffffffffffffffffffffffffffffffffffffffffffffffff90600181106112b6570190565b91909182811461192b576117f68354610b38565b67ffffffffffffffff811161191e575b611814816114998454610b38565b600093601f821160011461186c5793819293946000926118615750507fffffffffffffffffffffffffffffffffffffffffffffffffffffffffffffffff8260011b9260031b1c1916179055565b0154905038806114b8565b61189e7fffffffffffffffffffffffffffffffffffffffffffffffffffffffffffffffe0831691600052602060002090565b946118ae84600052602060002090565b91815b818110611906575095836001959697106118cf57505050811b019055565b01547fffffffffffffffffffffffffffffffffffffffffffffffffffffffffffffffff60f88460031b161c19169055388080611540565b878301548455600193840193909201916020016118b1565b611926610b8b565b611806565b509050565b9190611a5d575b808203611942575050565b60ff610c6392611a5260038073ffffffffffffffffffffffffffffffffffffffff936119ac85885416829073ffffffffffffffffffffffffffffffffffffffff167fffffffffffffffffffffffff0000000000000000000000000000000000000000825416179055565b6119bc60018801600183016117e2565b611a0a85600289015416600283019073ffffffffffffffffffffffffffffffffffffffff167fffffffffffffffffffffffff0000000000000000000000000000000000000000825416179055565b01940191825416849073ffffffffffffffffffffffffffffffffffffffff167fffffffffffffffffffffffff0000000000000000000000000000000000000000825416179055565b5460a01c16906115b4565b611a656113ec565b611937565b6001548015611b2f577fffffffffffffffffffffffffffffffffffffffffffffffffffffffffffffffff0160006003611aa283610af0565b611b22575b82815560018101611ab88154610b38565b9081611ace575b50508260028201550155600155565b601f8211600114611ae557849150555b3880611abf565b611b0d611b1d926001601f611aff85600052602060002090565b920160051c8201910161141c565b6000908082528160208120915555565b611ade565b611b2a6113ec565b611aa7565b7f4e487b7100000000000000000000000000000000000000000000000000000000600052603160045260246000fd5b60015415611bc457611b6f82611c35565b9173ffffffffffffffffffffffffffffffffffffffff9081808551169116149283611b9b575b50505090565b60600151811680159350918315611bb8575b505050388080611b95565b16149050388080611bad565b5050600090565b90604051611bd881610bbb565b60ff8193600373ffffffffffffffffffffffffffffffffffffffff91828154168552611c0660018201610c25565b60208601528260028201541660408601520154908116606084015260a01c169060058210156102705760800152565b611c8b6040608073ffffffffffffffffffffffffffffffffffffffff6102fe948351611c6081610bbb565b6000938185809352606060208201528287820152826060820152015216815260026020522054610af0565b50611bcb56fea2646970667358221220757d48e038e4855ae6f929b6e39fabc6162a900300d3628814172aca4af6337164736f6c634300080e00332f8788117e7eff1d82e926ec794901d17c78024a50270940304540a733656f0d",
  "linkReferences": {},
  "deployedLinkReferences": {}
}